{
  "_format": "hh-sol-artifact-1",
  "contractName": "HueWarriors",
  "sourceName": "contracts/HueWarriors.sol",
  "abi": [
    {
      "inputs": [
        {
          "internalType": "string[]",
          "name": "characterNames",
          "type": "string[]"
        },
        {
          "internalType": "string[]",
          "name": "characterImageURIs",
          "type": "string[]"
        },
        {
          "internalType": "uint256[]",
          "name": "characterPurity",
          "type": "uint256[]"
        },
        {
          "internalType": "uint256[]",
          "name": "characterStrength",
          "type": "uint256[]"
        },
        {
          "internalType": "uint256[]",
          "name": "criticalHitChance",
          "type": "uint256[]"
        },
        {
          "internalType": "string",
          "name": "bossName",
          "type": "string"
        },
        {
          "internalType": "string",
          "name": "bossImageURI",
          "type": "string"
        },
        {
          "internalType": "uint256",
          "name": "bossPurity",
          "type": "uint256"
        },
        {
          "internalType": "uint256",
          "name": "bossAttackStrength",
          "type": "uint256"
        },
        {
          "internalType": "uint256",
          "name": "bossCriticalHitChance",
          "type": "uint256"
        }
      ],
      "stateMutability": "nonpayable",
      "type": "constructor"
    },
    {
      "anonymous": false,
      "inputs": [
        {
          "indexed": true,
          "internalType": "address",
          "name": "owner",
          "type": "address"
        },
        {
          "indexed": true,
          "internalType": "address",
          "name": "approved",
          "type": "address"
        },
        {
          "indexed": true,
          "internalType": "uint256",
          "name": "tokenId",
          "type": "uint256"
        }
      ],
      "name": "Approval",
      "type": "event"
    },
    {
      "anonymous": false,
      "inputs": [
        {
          "indexed": true,
          "internalType": "address",
          "name": "owner",
          "type": "address"
        },
        {
          "indexed": true,
          "internalType": "address",
          "name": "operator",
          "type": "address"
        },
        {
          "indexed": false,
          "internalType": "bool",
          "name": "approved",
          "type": "bool"
        }
      ],
      "name": "ApprovalForAll",
      "type": "event"
    },
    {
      "anonymous": false,
      "inputs": [
        {
          "indexed": false,
          "internalType": "uint256",
          "name": "newBossPurity",
          "type": "uint256"
        },
        {
          "indexed": false,
          "internalType": "uint256",
          "name": "newPlayerPurity",
          "type": "uint256"
        }
      ],
      "name": "AttackComplete",
      "type": "event"
    },
    {
      "anonymous": false,
      "inputs": [
        {
          "indexed": false,
          "internalType": "address",
          "name": "sender",
          "type": "address"
        },
        {
          "indexed": false,
          "internalType": "uint256",
          "name": "tokenId",
          "type": "uint256"
        },
        {
          "indexed": false,
          "internalType": "uint256",
          "name": "characterIndex",
          "type": "uint256"
        }
      ],
      "name": "CharacterNFTMinted",
      "type": "event"
    },
    {
      "anonymous": false,
      "inputs": [
        {
          "indexed": true,
          "internalType": "address",
          "name": "from",
          "type": "address"
        },
        {
          "indexed": true,
          "internalType": "address",
          "name": "to",
          "type": "address"
        },
        {
          "indexed": true,
          "internalType": "uint256",
          "name": "tokenId",
          "type": "uint256"
        }
      ],
      "name": "Transfer",
      "type": "event"
    },
    {
      "inputs": [
        {
          "internalType": "address",
          "name": "to",
          "type": "address"
        },
        {
          "internalType": "uint256",
          "name": "tokenId",
          "type": "uint256"
        }
      ],
      "name": "approve",
      "outputs": [],
      "stateMutability": "nonpayable",
      "type": "function"
    },
    {
      "inputs": [],
      "name": "attackBoss",
      "outputs": [],
      "stateMutability": "nonpayable",
      "type": "function"
    },
    {
      "inputs": [
        {
          "internalType": "address",
          "name": "owner",
          "type": "address"
        }
      ],
      "name": "balanceOf",
      "outputs": [
        {
          "internalType": "uint256",
          "name": "",
          "type": "uint256"
        }
      ],
      "stateMutability": "view",
      "type": "function"
    },
    {
      "inputs": [],
      "name": "boss",
      "outputs": [
        {
          "internalType": "string",
          "name": "name",
          "type": "string"
        },
        {
          "internalType": "string",
          "name": "imageURI",
          "type": "string"
        },
        {
          "internalType": "uint256",
          "name": "purity",
          "type": "uint256"
        },
        {
          "internalType": "uint256",
          "name": "maxPurity",
          "type": "uint256"
        },
        {
          "internalType": "uint256",
          "name": "attackStrength",
          "type": "uint256"
        },
        {
          "internalType": "uint256",
          "name": "criticalHitChance",
          "type": "uint256"
        }
      ],
      "stateMutability": "view",
      "type": "function"
    },
    {
      "inputs": [],
      "name": "checkIfUserHasNFT",
      "outputs": [
        {
          "components": [
            {
              "internalType": "uint256",
              "name": "characterIndex",
              "type": "uint256"
            },
            {
              "internalType": "string",
              "name": "name",
              "type": "string"
            },
            {
              "internalType": "string",
              "name": "imageURI",
              "type": "string"
            },
            {
              "internalType": "uint256",
              "name": "purity",
              "type": "uint256"
            },
            {
              "internalType": "uint256",
              "name": "maxPurity",
              "type": "uint256"
            },
            {
              "internalType": "uint256",
              "name": "attackStrength",
              "type": "uint256"
            },
            {
              "internalType": "uint256",
              "name": "criticalHitChance",
              "type": "uint256"
            }
          ],
          "internalType": "struct HueWarriors.CharacterAttributes",
          "name": "",
          "type": "tuple"
        }
      ],
      "stateMutability": "view",
      "type": "function"
    },
    {
      "inputs": [],
      "name": "getAllDefaultCharacters",
      "outputs": [
        {
          "components": [
            {
              "internalType": "uint256",
              "name": "characterIndex",
              "type": "uint256"
            },
            {
              "internalType": "string",
              "name": "name",
              "type": "string"
            },
            {
              "internalType": "string",
              "name": "imageURI",
              "type": "string"
            },
            {
              "internalType": "uint256",
              "name": "purity",
              "type": "uint256"
            },
            {
              "internalType": "uint256",
              "name": "maxPurity",
              "type": "uint256"
            },
            {
              "internalType": "uint256",
              "name": "attackStrength",
              "type": "uint256"
            },
            {
              "internalType": "uint256",
              "name": "criticalHitChance",
              "type": "uint256"
            }
          ],
          "internalType": "struct HueWarriors.CharacterAttributes[]",
          "name": "",
          "type": "tuple[]"
        }
      ],
      "stateMutability": "view",
      "type": "function"
    },
    {
      "inputs": [
        {
          "internalType": "uint256",
          "name": "tokenId",
          "type": "uint256"
        }
      ],
      "name": "getApproved",
      "outputs": [
        {
          "internalType": "address",
          "name": "",
          "type": "address"
        }
      ],
      "stateMutability": "view",
      "type": "function"
    },
    {
      "inputs": [],
      "name": "getBoss",
      "outputs": [
        {
          "components": [
            {
              "internalType": "string",
              "name": "name",
              "type": "string"
            },
            {
              "internalType": "string",
              "name": "imageURI",
              "type": "string"
            },
            {
              "internalType": "uint256",
              "name": "purity",
              "type": "uint256"
            },
            {
              "internalType": "uint256",
              "name": "maxPurity",
              "type": "uint256"
            },
            {
              "internalType": "uint256",
              "name": "attackStrength",
              "type": "uint256"
            },
            {
              "internalType": "uint256",
              "name": "criticalHitChance",
              "type": "uint256"
            }
          ],
          "internalType": "struct HueWarriors.Boss",
          "name": "",
          "type": "tuple"
        }
      ],
      "stateMutability": "view",
      "type": "function"
    },
    {
      "inputs": [
        {
          "internalType": "address",
          "name": "owner",
          "type": "address"
        },
        {
          "internalType": "address",
          "name": "operator",
          "type": "address"
        }
      ],
      "name": "isApprovedForAll",
      "outputs": [
        {
          "internalType": "bool",
          "name": "",
          "type": "bool"
        }
      ],
      "stateMutability": "view",
      "type": "function"
    },
    {
      "inputs": [
        {
          "internalType": "uint256",
          "name": "_characterIndex",
          "type": "uint256"
        }
      ],
      "name": "mintCharacterNFT",
      "outputs": [],
      "stateMutability": "nonpayable",
      "type": "function"
    },
    {
      "inputs": [],
      "name": "name",
      "outputs": [
        {
          "internalType": "string",
          "name": "",
          "type": "string"
        }
      ],
      "stateMutability": "view",
      "type": "function"
    },
    {
      "inputs": [
        {
          "internalType": "uint256",
          "name": "",
          "type": "uint256"
        }
      ],
      "name": "nftHolderAttributes",
      "outputs": [
        {
          "internalType": "uint256",
          "name": "characterIndex",
          "type": "uint256"
        },
        {
          "internalType": "string",
          "name": "name",
          "type": "string"
        },
        {
          "internalType": "string",
          "name": "imageURI",
          "type": "string"
        },
        {
          "internalType": "uint256",
          "name": "purity",
          "type": "uint256"
        },
        {
          "internalType": "uint256",
          "name": "maxPurity",
          "type": "uint256"
        },
        {
          "internalType": "uint256",
          "name": "attackStrength",
          "type": "uint256"
        },
        {
          "internalType": "uint256",
          "name": "criticalHitChance",
          "type": "uint256"
        }
      ],
      "stateMutability": "view",
      "type": "function"
    },
    {
      "inputs": [
        {
          "internalType": "address",
          "name": "",
          "type": "address"
        }
      ],
      "name": "nftHolders",
      "outputs": [
        {
          "internalType": "uint256",
          "name": "",
          "type": "uint256"
        }
      ],
      "stateMutability": "view",
      "type": "function"
    },
    {
      "inputs": [
        {
          "internalType": "uint256",
          "name": "tokenId",
          "type": "uint256"
        }
      ],
      "name": "ownerOf",
      "outputs": [
        {
          "internalType": "address",
          "name": "",
          "type": "address"
        }
      ],
      "stateMutability": "view",
      "type": "function"
    },
    {
      "inputs": [
        {
          "internalType": "address",
          "name": "from",
          "type": "address"
        },
        {
          "internalType": "address",
          "name": "to",
          "type": "address"
        },
        {
          "internalType": "uint256",
          "name": "tokenId",
          "type": "uint256"
        }
      ],
      "name": "safeTransferFrom",
      "outputs": [],
      "stateMutability": "nonpayable",
      "type": "function"
    },
    {
      "inputs": [
        {
          "internalType": "address",
          "name": "from",
          "type": "address"
        },
        {
          "internalType": "address",
          "name": "to",
          "type": "address"
        },
        {
          "internalType": "uint256",
          "name": "tokenId",
          "type": "uint256"
        },
        {
          "internalType": "bytes",
          "name": "_data",
          "type": "bytes"
        }
      ],
      "name": "safeTransferFrom",
      "outputs": [],
      "stateMutability": "nonpayable",
      "type": "function"
    },
    {
      "inputs": [
        {
          "internalType": "address",
          "name": "operator",
          "type": "address"
        },
        {
          "internalType": "bool",
          "name": "approved",
          "type": "bool"
        }
      ],
      "name": "setApprovalForAll",
      "outputs": [],
      "stateMutability": "nonpayable",
      "type": "function"
    },
    {
      "inputs": [
        {
          "internalType": "bytes4",
          "name": "interfaceId",
          "type": "bytes4"
        }
      ],
      "name": "supportsInterface",
      "outputs": [
        {
          "internalType": "bool",
          "name": "",
          "type": "bool"
        }
      ],
      "stateMutability": "view",
      "type": "function"
    },
    {
      "inputs": [],
      "name": "symbol",
      "outputs": [
        {
          "internalType": "string",
          "name": "",
          "type": "string"
        }
      ],
      "stateMutability": "view",
      "type": "function"
    },
    {
      "inputs": [
        {
          "internalType": "uint256",
          "name": "_tokenId",
          "type": "uint256"
        }
      ],
      "name": "tokenURI",
      "outputs": [
        {
          "internalType": "string",
          "name": "",
          "type": "string"
        }
      ],
      "stateMutability": "view",
      "type": "function"
    },
    {
      "inputs": [
        {
          "internalType": "address",
          "name": "from",
          "type": "address"
        },
        {
          "internalType": "address",
          "name": "to",
          "type": "address"
        },
        {
          "internalType": "uint256",
          "name": "tokenId",
          "type": "uint256"
        }
      ],
      "name": "transferFrom",
      "outputs": [],
      "stateMutability": "nonpayable",
      "type": "function"
    }
  ],
  "bytecode": "0x60806040523480156200001157600080fd5b5060405162005a4038038062005a40833981810160405281019062000037919062000bb5565b6040518060400160405280600b81526020017f48756557617272696f72730000000000000000000000000000000000000000008152506040518060400160405280600481526020017f48555741000000000000000000000000000000000000000000000000000000008152508160009080519060200190620000bb92919062000948565b508060019080519060200190620000d492919062000948565b5050506040518060c0016040528086815260200185815260200184815260200184815260200183815260200182815250600660008201518160000190805190602001906200012492919062000948565b5060208201518160010190805190602001906200014392919062000948565b5060408201518160020155606082015181600301556080820151816004015560a08201518160050155905050620002d06040518060600160405280602e815260200162005a12602e9139600660000180546200019f9062000faa565b80601f0160208091040260200160405190810160405280929190818152602001828054620001cd9062000faa565b80156200021e5780601f10620001f2576101008083540402835291602001916200021e565b820191906000526020600020905b8154815290600101906020018083116200020057829003601f168201915b5050505050600660020154600660010180546200023b9062000faa565b80601f0160208091040260200160405190810160405280929190818152602001828054620002699062000faa565b8015620002ba5780601f106200028e57610100808354040283529160200191620002ba565b820191906000526020600020905b8154815290600101906020018083116200029c57829003601f168201915b5050505050620007ba60201b62001c661760201c565b60005b8a518110156200074757600d6040518060e001604052808381526020018d84815181106200032a577f4e487b7100000000000000000000000000000000000000000000000000000000600052603260045260246000fd5b602002602001015181526020018c848151811062000371577f4e487b7100000000000000000000000000000000000000000000000000000000600052603260045260246000fd5b602002602001015181526020018b8481518110620003b8577f4e487b7100000000000000000000000000000000000000000000000000000000600052603260045260246000fd5b602002602001015181526020018b8481518110620003ff577f4e487b7100000000000000000000000000000000000000000000000000000000600052603260045260246000fd5b602002602001015181526020018a848151811062000446577f4e487b7100000000000000000000000000000000000000000000000000000000600052603260045260246000fd5b602002602001015181526020018984815181106200048d577f4e487b7100000000000000000000000000000000000000000000000000000000600052603260045260246000fd5b60200260200101518152509080600181540180825580915050600190039060005260206000209060070201600090919091909150600082015181600001556020820151816001019080519060200190620004e992919062000948565b5060408201518160020190805190602001906200050892919062000948565b50606082015181600301556080820151816004015560a0820151816005015560c0820151816006015550506000600d828154811062000570577f4e487b7100000000000000000000000000000000000000000000000000000000600052603260045260246000fd5b90600052602060002090600702016040518060e001604052908160008201548152602001600182018054620005a59062000faa565b80601f0160208091040260200160405190810160405280929190818152602001828054620005d39062000faa565b8015620006245780601f10620005f85761010080835404028352916020019162000624565b820191906000526020600020905b8154815290600101906020018083116200060657829003601f168201915b505050505081526020016002820180546200063f9062000faa565b80601f01602080910402602001604051908101604052809291908181526020018280546200066d9062000faa565b8015620006be5780601f106200069257610100808354040283529160200191620006be565b820191906000526020600020905b815481529060010190602001808311620006a057829003601f168201915b5050505050815260200160038201548152602001600482015481526020016005820154815260200160068201548152505090506200072f604051806060016040528060298152602001620059e960299139826020015183606001518460400151620007ba60201b62001c661760201c565b506001816200073f919062000f0d565b9050620002d3565b506200075f600c6200086660201b62001d081760201c565b620007aa6040518060400160405280601481526020017f48756557617272696f727320617261697365642e0000000000000000000000008152506200087c60201b62001d1e1760201c565b5050505050505050505062001098565b6200086084848484604051602401620007d7949392919062000dca565b6040516020818303038152906040527f8d142cdd000000000000000000000000000000000000000000000000000000007bffffffffffffffffffffffffffffffffffffffffffffffffffffffff19166020820180517bffffffffffffffffffffffffffffffffffffffffffffffffffffffff83818316178352505050506200091f60201b60201c565b50505050565b6001816000016000828254019250508190555050565b6200091c8160405160240162000893919062000da6565b6040516020818303038152906040527f41304fac000000000000000000000000000000000000000000000000000000007bffffffffffffffffffffffffffffffffffffffffffffffffffffffff19166020820180517bffffffffffffffffffffffffffffffffffffffffffffffffffffffff83818316178352505050506200091f60201b60201c565b50565b60008151905060006a636f6e736f6c652e6c6f679050602083016000808483855afa5050505050565b828054620009569062000faa565b90600052602060002090601f0160209004810192826200097a5760008555620009c6565b82601f106200099557805160ff1916838001178555620009c6565b82800160010185558215620009c6579182015b82811115620009c5578251825591602001919060010190620009a8565b5b509050620009d59190620009d9565b5090565b5b80821115620009f4576000816000905550600101620009da565b5090565b600062000a0f62000a098462000e60565b62000e2c565b9050808382526020820190508260005b8581101562000a53578151850162000a38888262000b71565b84526020840193506020830192505060018101905062000a1f565b5050509392505050565b600062000a7462000a6e8462000e8f565b62000e2c565b9050808382526020820190508285602086028201111562000a9457600080fd5b60005b8581101562000ac8578162000aad888262000b9e565b84526020840193506020830192505060018101905062000a97565b5050509392505050565b600062000ae962000ae38462000ebe565b62000e2c565b90508281526020810184848401111562000b0257600080fd5b62000b0f84828562000f74565b509392505050565b600082601f83011262000b2957600080fd5b815162000b3b848260208601620009f8565b91505092915050565b600082601f83011262000b5657600080fd5b815162000b6884826020860162000a5d565b91505092915050565b600082601f83011262000b8357600080fd5b815162000b9584826020860162000ad2565b91505092915050565b60008151905062000baf816200107e565b92915050565b6000806000806000806000806000806101408b8d03121562000bd657600080fd5b60008b015167ffffffffffffffff81111562000bf157600080fd5b62000bff8d828e0162000b17565b9a505060208b015167ffffffffffffffff81111562000c1d57600080fd5b62000c2b8d828e0162000b17565b99505060408b015167ffffffffffffffff81111562000c4957600080fd5b62000c578d828e0162000b44565b98505060608b015167ffffffffffffffff81111562000c7557600080fd5b62000c838d828e0162000b44565b97505060808b015167ffffffffffffffff81111562000ca157600080fd5b62000caf8d828e0162000b44565b96505060a08b015167ffffffffffffffff81111562000ccd57600080fd5b62000cdb8d828e0162000b71565b95505060c08b015167ffffffffffffffff81111562000cf957600080fd5b62000d078d828e0162000b71565b94505060e062000d1a8d828e0162000b9e565b93505061010062000d2e8d828e0162000b9e565b92505061012062000d428d828e0162000b9e565b9150509295989b9194979a5092959850565b600062000d618262000ef1565b62000d6d818562000efc565b935062000d7f81856020860162000f74565b62000d8a816200106d565b840191505092915050565b62000da08162000f6a565b82525050565b6000602082019050818103600083015262000dc2818462000d54565b905092915050565b6000608082019050818103600083015262000de6818762000d54565b9050818103602083015262000dfc818662000d54565b905062000e0d604083018562000d95565b818103606083015262000e21818462000d54565b905095945050505050565b6000604051905081810181811067ffffffffffffffff8211171562000e565762000e556200103e565b5b8060405250919050565b600067ffffffffffffffff82111562000e7e5762000e7d6200103e565b5b602082029050602081019050919050565b600067ffffffffffffffff82111562000ead5762000eac6200103e565b5b602082029050602081019050919050565b600067ffffffffffffffff82111562000edc5762000edb6200103e565b5b601f19601f8301169050602081019050919050565b600081519050919050565b600082825260208201905092915050565b600062000f1a8262000f6a565b915062000f278362000f6a565b9250827fffffffffffffffffffffffffffffffffffffffffffffffffffffffffffffffff0382111562000f5f5762000f5e62000fe0565b5b828201905092915050565b6000819050919050565b60005b8381101562000f9457808201518184015260208101905062000f77565b8381111562000fa4576000848401525b50505050565b6000600282049050600182168062000fc357607f821691505b6020821081141562000fda5762000fd96200100f565b5b50919050565b7f4e487b7100000000000000000000000000000000000000000000000000000000600052601160045260246000fd5b7f4e487b7100000000000000000000000000000000000000000000000000000000600052602260045260246000fd5b7f4e487b7100000000000000000000000000000000000000000000000000000000600052604160045260246000fd5b6000601f19601f8301169050919050565b620010898162000f6a565b81146200109557600080fd5b50565b61494180620010a86000396000f3fe608060405234801561001057600080fd5b50600436106101375760003560e01c806398da4c95116100b8578063c772af391161007c578063c772af3914610366578063c87b56dd14610389578063c8cf27f4146103b9578063d4f24c5b146103d7578063e985e9c5146103e1578063f8b81ef71461041157610137565b806398da4c95146102bc578063a22cb465146102f2578063b88d4fde1461030e578063b953084e1461032a578063c76d9e7d1461034857610137565b806342842e0e116100ff57806342842e0e146101f25780636352211e1461020e57806370a082311461023e5780637df124a11461026e57806395d89b411461029e57610137565b806301ffc9a71461013c57806306fdde031461016c578063081812fc1461018a578063095ea7b3146101ba57806323b872dd146101d6575b600080fd5b61015660048036038101906101519190613135565b61042d565b6040516101639190613ece565b60405180910390f35b61017461050f565b6040516101819190613ee9565b60405180910390f35b6101a4600480360381019061019f9190613187565b6105a1565b6040516101b19190613e0e565b60405180910390f35b6101d460048036038101906101cf91906130f9565b610626565b005b6101f060048036038101906101eb9190612ff3565b61073e565b005b61020c60048036038101906102079190612ff3565b61079e565b005b61022860048036038101906102239190613187565b6107be565b6040516102359190613e0e565b60405180910390f35b61025860048036038101906102539190612f8e565b610870565b60405161026591906142b9565b60405180910390f35b61028860048036038101906102839190612f8e565b610928565b60405161029591906142b9565b60405180910390f35b6102a6610940565b6040516102b39190613ee9565b60405180910390f35b6102d660048036038101906102d19190613187565b6109d2565b6040516102e997969594939291906142d4565b60405180910390f35b61030c600480360381019061030791906130bd565b610b24565b005b61032860048036038101906103239190613042565b610b3a565b005b610332610b9c565b60405161033f9190613eac565b60405180910390f35b610350610d51565b60405161035d9190614275565b60405180910390f35b61036e610eb7565b60405161038096959493929190613fb8565b60405180910390f35b6103a3600480360381019061039e9190613187565b610ff1565b6040516103b09190613ee9565b60405180910390f35b6103c1611216565b6040516103ce9190614297565b60405180910390f35b6103df6113f8565b005b6103fb60048036038101906103f69190612fb7565b611783565b6040516104089190613ece565b60405180910390f35b61042b60048036038101906104269190613187565b611817565b005b60007f80ac58cd000000000000000000000000000000000000000000000000000000007bffffffffffffffffffffffffffffffffffffffffffffffffffffffff1916827bffffffffffffffffffffffffffffffffffffffffffffffffffffffff191614806104f857507f5b5e139f000000000000000000000000000000000000000000000000000000007bffffffffffffffffffffffffffffffffffffffffffffffffffffffff1916827bffffffffffffffffffffffffffffffffffffffffffffffffffffffff1916145b80610508575061050782611db7565b5b9050919050565b60606000805461051e90614633565b80601f016020809104026020016040519081016040528092919081815260200182805461054a90614633565b80156105975780601f1061056c57610100808354040283529160200191610597565b820191906000526020600020905b81548152906001019060200180831161057a57829003601f168201915b5050505050905090565b60006105ac82611e21565b6105eb576040517f08c379a00000000000000000000000000000000000000000000000000000000081526004016105e2906141d5565b60405180910390fd5b6004600083815260200190815260200160002060009054906101000a900473ffffffffffffffffffffffffffffffffffffffff169050919050565b6000610631826107be565b90508073ffffffffffffffffffffffffffffffffffffffff168373ffffffffffffffffffffffffffffffffffffffff1614156106a2576040517f08c379a000000000000000000000000000000000000000000000000000000000815260040161069990614215565b60405180910390fd5b8073ffffffffffffffffffffffffffffffffffffffff166106c1611e8d565b73ffffffffffffffffffffffffffffffffffffffff1614806106f057506106ef816106ea611e8d565b611783565b5b61072f576040517f08c379a000000000000000000000000000000000000000000000000000000000815260040161072690614155565b60405180910390fd5b6107398383611e95565b505050565b61074f610749611e8d565b82611f4e565b61078e576040517f08c379a000000000000000000000000000000000000000000000000000000000815260040161078590614235565b60405180910390fd5b61079983838361202c565b505050565b6107b983838360405180602001604052806000815250610b3a565b505050565b6000806002600084815260200190815260200160002060009054906101000a900473ffffffffffffffffffffffffffffffffffffffff169050600073ffffffffffffffffffffffffffffffffffffffff168173ffffffffffffffffffffffffffffffffffffffff161415610867576040517f08c379a000000000000000000000000000000000000000000000000000000000815260040161085e90614195565b60405180910390fd5b80915050919050565b60008073ffffffffffffffffffffffffffffffffffffffff168273ffffffffffffffffffffffffffffffffffffffff1614156108e1576040517f08c379a00000000000000000000000000000000000000000000000000000000081526004016108d890614175565b60405180910390fd5b600360008373ffffffffffffffffffffffffffffffffffffffff1673ffffffffffffffffffffffffffffffffffffffff168152602001908152602001600020549050919050565b600f6020528060005260406000206000915090505481565b60606001805461094f90614633565b80601f016020809104026020016040519081016040528092919081815260200182805461097b90614633565b80156109c85780601f1061099d576101008083540402835291602001916109c8565b820191906000526020600020905b8154815290600101906020018083116109ab57829003601f168201915b5050505050905090565b600e6020528060005260406000206000915090508060000154908060010180546109fb90614633565b80601f0160208091040260200160405190810160405280929190818152602001828054610a2790614633565b8015610a745780601f10610a4957610100808354040283529160200191610a74565b820191906000526020600020905b815481529060010190602001808311610a5757829003601f168201915b505050505090806002018054610a8990614633565b80601f0160208091040260200160405190810160405280929190818152602001828054610ab590614633565b8015610b025780601f10610ad757610100808354040283529160200191610b02565b820191906000526020600020905b815481529060010190602001808311610ae557829003601f168201915b5050505050908060030154908060040154908060050154908060060154905087565b610b36610b2f611e8d565b8383612288565b5050565b610b4b610b45611e8d565b83611f4e565b610b8a576040517f08c379a0000000000000000000000000000000000000000000000000000000008152600401610b8190614235565b60405180910390fd5b610b96848484846123f5565b50505050565b6060600d805480602002602001604051908101604052809291908181526020016000905b82821015610d4857838290600052602060002090600702016040518060e001604052908160008201548152602001600182018054610bfd90614633565b80601f0160208091040260200160405190810160405280929190818152602001828054610c2990614633565b8015610c765780601f10610c4b57610100808354040283529160200191610c76565b820191906000526020600020905b815481529060010190602001808311610c5957829003601f168201915b50505050508152602001600282018054610c8f90614633565b80601f0160208091040260200160405190810160405280929190818152602001828054610cbb90614633565b8015610d085780601f10610cdd57610100808354040283529160200191610d08565b820191906000526020600020905b815481529060010190602001808311610ceb57829003601f168201915b5050505050815260200160038201548152602001600482015481526020016005820154815260200160068201548152505081526020019060010190610bc0565b50505050905090565b610d59612da7565b60066040518060c0016040529081600082018054610d7690614633565b80601f0160208091040260200160405190810160405280929190818152602001828054610da290614633565b8015610def5780601f10610dc457610100808354040283529160200191610def565b820191906000526020600020905b815481529060010190602001808311610dd257829003601f168201915b50505050508152602001600182018054610e0890614633565b80601f0160208091040260200160405190810160405280929190818152602001828054610e3490614633565b8015610e815780601f10610e5657610100808354040283529160200191610e81565b820191906000526020600020905b815481529060010190602001808311610e6457829003601f168201915b50505050508152602001600282015481526020016003820154815260200160048201548152602001600582015481525050905090565b6006806000018054610ec890614633565b80601f0160208091040260200160405190810160405280929190818152602001828054610ef490614633565b8015610f415780601f10610f1657610100808354040283529160200191610f41565b820191906000526020600020905b815481529060010190602001808311610f2457829003601f168201915b505050505090806001018054610f5690614633565b80601f0160208091040260200160405190810160405280929190818152602001828054610f8290614633565b8015610fcf5780601f10610fa457610100808354040283529160200191610fcf565b820191906000526020600020905b815481529060010190602001808311610fb257829003601f168201915b5050505050908060020154908060030154908060040154908060050154905086565b60606000600e60008481526020019081526020016000206040518060e00160405290816000820154815260200160018201805461102d90614633565b80601f016020809104026020016040519081016040528092919081815260200182805461105990614633565b80156110a65780601f1061107b576101008083540402835291602001916110a6565b820191906000526020600020905b81548152906001019060200180831161108957829003601f168201915b505050505081526020016002820180546110bf90614633565b80601f01602080910402602001604051908101604052809291908181526020018280546110eb90614633565b80156111385780601f1061110d57610100808354040283529160200191611138565b820191906000526020600020905b81548152906001019060200180831161111b57829003601f168201915b505050505081526020016003820154815260200160048201548152602001600582015481526020016006820154815250509050600061117a8260600151612451565b9050600061118b8360800151612451565b9050600061119c8460a00151612451565b905060006111e285602001516111b189612451565b87604001518787876040516020016111ce96959493929190613d47565b6040516020818303038152906040526125fe565b90506000816040516020016111f79190613dec565b6040516020818303038152906040529050809650505050505050919050565b61121e612ddd565b6000600f60003373ffffffffffffffffffffffffffffffffffffffff1673ffffffffffffffffffffffffffffffffffffffff16815260200190815260200160002054905060008111156113e757600e60008281526020019081526020016000206040518060e0016040529081600082015481526020016001820180546112a390614633565b80601f01602080910402602001604051908101604052809291908181526020018280546112cf90614633565b801561131c5780601f106112f15761010080835404028352916020019161131c565b820191906000526020600020905b8154815290600101906020018083116112ff57829003601f168201915b5050505050815260200160028201805461133590614633565b80601f016020809104026020016040519081016040528092919081815260200182805461136190614633565b80156113ae5780601f10611383576101008083540402835291602001916113ae565b820191906000526020600020905b81548152906001019060200180831161139157829003601f168201915b505050505081526020016003820154815260200160048201548152602001600582015481526020016006820154815250509150506113f5565b6113ef612ddd565b80925050505b90565b6000600f60003373ffffffffffffffffffffffffffffffffffffffff1673ffffffffffffffffffffffffffffffffffffffff1681526020019081526020016000205490506000600e6000838152602001908152602001600020905061150b6040518060600160405280604081526020016148096040913982600101805461147e90614633565b80601f01602080910402602001604051908101604052809291908181526020018280546114aa90614633565b80156114f75780601f106114cc576101008083540402835291602001916114f7565b820191906000526020600020905b8154815290600101906020018083116114da57829003601f168201915b50505050508360030154846005015461279d565b6115e36040518060400160405280601f81526020017f426f7373202573206861732025732070757269747920616e64202573204153008152506006600001805461155490614633565b80601f016020809104026020016040519081016040528092919081815260200182805461158090614633565b80156115cd5780601f106115a2576101008083540402835291602001916115cd565b820191906000526020600020905b8154815290600101906020018083116115b057829003601f168201915b505050505060066002015460066004015461279d565b600081600301541161162a576040517f08c379a000000000000000000000000000000000000000000000000000000000815260040161162190614255565b60405180910390fd5b600060066002015411611672576040517f08c379a000000000000000000000000000000000000000000000000000000000815260040161166990614095565b60405180910390fd5b806005015460066002015410156116935760006006600201819055506116b2565b80600501546006600201546116a89190614549565b6006600201819055505b600660040154816003015410156116d257600081600301819055506116f0565b60066004015481600301546116e79190614549565b81600301819055505b6117176040518060600160405280602981526020016148b56029913960066002015461283f565b61173d6040518060600160405280602c8152602001614889602c9139826003015461283f565b7f838ab28464562786a6c4ab2311964b82fa60bd9b14aa7e856af1f3f18d41a4146006600201548260030154604051611777929190614351565b60405180910390a15050565b6000600560008473ffffffffffffffffffffffffffffffffffffffff1673ffffffffffffffffffffffffffffffffffffffff16815260200190815260200160002060008373ffffffffffffffffffffffffffffffffffffffff1673ffffffffffffffffffffffffffffffffffffffff16815260200190815260200160002060009054906101000a900460ff16905092915050565b6000611823600c6128db565b905061182f33826128e9565b6040518060e00160405280838152602001600d848154811061187a577f4e487b7100000000000000000000000000000000000000000000000000000000600052603260045260246000fd5b9060005260206000209060070201600101805461189690614633565b80601f01602080910402602001604051908101604052809291908181526020018280546118c290614633565b801561190f5780601f106118e45761010080835404028352916020019161190f565b820191906000526020600020905b8154815290600101906020018083116118f257829003601f168201915b50505050508152602001600d8481548110611953577f4e487b7100000000000000000000000000000000000000000000000000000000600052603260045260246000fd5b9060005260206000209060070201600201805461196f90614633565b80601f016020809104026020016040519081016040528092919081815260200182805461199b90614633565b80156119e85780601f106119bd576101008083540402835291602001916119e8565b820191906000526020600020905b8154815290600101906020018083116119cb57829003601f168201915b50505050508152602001600d8481548110611a2c577f4e487b7100000000000000000000000000000000000000000000000000000000600052603260045260246000fd5b9060005260206000209060070201600301548152602001600d8481548110611a7d577f4e487b7100000000000000000000000000000000000000000000000000000000600052603260045260246000fd5b9060005260206000209060070201600401548152602001600d8481548110611ace577f4e487b7100000000000000000000000000000000000000000000000000000000600052603260045260246000fd5b9060005260206000209060070201600501548152602001600d8481548110611b1f577f4e487b7100000000000000000000000000000000000000000000000000000000600052603260045260246000fd5b906000526020600020906007020160060154815250600e6000838152602001908152602001600020600082015181600001556020820151816001019080519060200190611b6d929190612e1a565b506040820151816002019080519060200190611b8a929190612e1a565b50606082015181600301556080820151816004015560a0820151816005015560c08201518160060155905050611bd96040518060600160405280602e81526020016148de602e91398284612907565b80600f60003373ffffffffffffffffffffffffffffffffffffffff1673ffffffffffffffffffffffffffffffffffffffff16815260200190815260200160002081905550611c27600c611d08565b7f4bc303fd457a97b4691b9af582ce71868a3d258638c8d4f8c60988a0f0bfb8cd338284604051611c5a93929190613e75565b60405180910390a15050565b611d0284848484604051602401611c809493929190613f0b565b6040516020818303038152906040527f8d142cdd000000000000000000000000000000000000000000000000000000007bffffffffffffffffffffffffffffffffffffffffffffffffffffffff19166020820180517bffffffffffffffffffffffffffffffffffffffffffffffffffffffff83818316178352505050506129a6565b50505050565b6001816000016000828254019250508190555050565b611db481604051602401611d329190613ee9565b6040516020818303038152906040527f41304fac000000000000000000000000000000000000000000000000000000007bffffffffffffffffffffffffffffffffffffffffffffffffffffffff19166020820180517bffffffffffffffffffffffffffffffffffffffffffffffffffffffff83818316178352505050506129a6565b50565b60007f01ffc9a7000000000000000000000000000000000000000000000000000000007bffffffffffffffffffffffffffffffffffffffffffffffffffffffff1916827bffffffffffffffffffffffffffffffffffffffffffffffffffffffff1916149050919050565b60008073ffffffffffffffffffffffffffffffffffffffff166002600084815260200190815260200160002060009054906101000a900473ffffffffffffffffffffffffffffffffffffffff1673ffffffffffffffffffffffffffffffffffffffff1614159050919050565b600033905090565b816004600083815260200190815260200160002060006101000a81548173ffffffffffffffffffffffffffffffffffffffff021916908373ffffffffffffffffffffffffffffffffffffffff160217905550808273ffffffffffffffffffffffffffffffffffffffff16611f08836107be565b73ffffffffffffffffffffffffffffffffffffffff167f8c5be1e5ebec7d5bd14f71427d1e84f3dd0314c0f7b2291e5b200ac8c7c3b92560405160405180910390a45050565b6000611f5982611e21565b611f98576040517f08c379a0000000000000000000000000000000000000000000000000000000008152600401611f8f90614135565b60405180910390fd5b6000611fa3836107be565b90508073ffffffffffffffffffffffffffffffffffffffff168473ffffffffffffffffffffffffffffffffffffffff16148061201257508373ffffffffffffffffffffffffffffffffffffffff16611ffa846105a1565b73ffffffffffffffffffffffffffffffffffffffff16145b8061202357506120228185611783565b5b91505092915050565b8273ffffffffffffffffffffffffffffffffffffffff1661204c826107be565b73ffffffffffffffffffffffffffffffffffffffff16146120a2576040517f08c379a0000000000000000000000000000000000000000000000000000000008152600401612099906141f5565b60405180910390fd5b600073ffffffffffffffffffffffffffffffffffffffff168273ffffffffffffffffffffffffffffffffffffffff161415612112576040517f08c379a0000000000000000000000000000000000000000000000000000000008152600401612109906140f5565b60405180910390fd5b61211d8383836129cf565b612128600082611e95565b6001600360008573ffffffffffffffffffffffffffffffffffffffff1673ffffffffffffffffffffffffffffffffffffffff16815260200190815260200160002060008282546121789190614549565b925050819055506001600360008473ffffffffffffffffffffffffffffffffffffffff1673ffffffffffffffffffffffffffffffffffffffff16815260200190815260200160002060008282546121cf9190614468565b92505081905550816002600083815260200190815260200160002060006101000a81548173ffffffffffffffffffffffffffffffffffffffff021916908373ffffffffffffffffffffffffffffffffffffffff160217905550808273ffffffffffffffffffffffffffffffffffffffff168473ffffffffffffffffffffffffffffffffffffffff167fddf252ad1be2c89b69c2b068fc378daa952ba7f163c4a11628f55a4df523b3ef60405160405180910390a4505050565b8173ffffffffffffffffffffffffffffffffffffffff168373ffffffffffffffffffffffffffffffffffffffff1614156122f7576040517f08c379a00000000000000000000000000000000000000000000000000000000081526004016122ee90614115565b60405180910390fd5b80600560008573ffffffffffffffffffffffffffffffffffffffff1673ffffffffffffffffffffffffffffffffffffffff16815260200190815260200160002060008473ffffffffffffffffffffffffffffffffffffffff1673ffffffffffffffffffffffffffffffffffffffff16815260200190815260200160002060006101000a81548160ff0219169083151502179055508173ffffffffffffffffffffffffffffffffffffffff168373ffffffffffffffffffffffffffffffffffffffff167f17307eab39ab6107e8899845ad3d59bd9653f200f220920489ca2b5937696c31836040516123e89190613ece565b60405180910390a3505050565b61240084848461202c565b61240c848484846129d4565b61244b576040517f08c379a0000000000000000000000000000000000000000000000000000000008152600401612442906140b5565b60405180910390fd5b50505050565b60606000821415612499576040518060400160405280600181526020017f300000000000000000000000000000000000000000000000000000000000000081525090506125f9565b600082905060005b600082146124cb5780806124b490614665565b915050600a826124c491906144be565b91506124a1565b60008167ffffffffffffffff81111561250d577f4e487b7100000000000000000000000000000000000000000000000000000000600052604160045260246000fd5b6040519080825280601f01601f19166020018201604052801561253f5781602001600182028036833780820191505090505b5090505b600085146125f2576001826125589190614549565b9150600a8561256791906146ae565b60306125739190614468565b60f81b8183815181106125af577f4e487b7100000000000000000000000000000000000000000000000000000000600052603260045260246000fd5b60200101907effffffffffffffffffffffffffffffffffffffffffffffffffffffffffffff1916908160001a905350600a856125eb91906144be565b9450612543565b8093505050505b919050565b606060008251141561262157604051806020016040528060008152509050612798565b600060405180606001604052806040815260200161484960409139905060006003600285516126509190614468565b61265a91906144be565b600461266691906144ef565b905060006020826126779190614468565b67ffffffffffffffff8111156126b6577f4e487b7100000000000000000000000000000000000000000000000000000000600052604160045260246000fd5b6040519080825280601f01601f1916602001820160405280156126e85781602001600182028036833780820191505090505b509050818152600183018586518101602084015b81831015612757576003830192508251603f8160121c168501518253600182019150603f81600c1c168501518253600182019150603f8160061c168501518253600182019150603f81168501518253600182019150506126fc565b60038951066001811461277157600281146127815761278c565b613d3d60f01b600283035261278c565b603d60f81b60018303525b50505050508093505050505b919050565b612839848484846040516024016127b79493929190613f65565b6040516020818303038152906040527fd5cf17d0000000000000000000000000000000000000000000000000000000007bffffffffffffffffffffffffffffffffffffffffffffffffffffffff19166020820180517bffffffffffffffffffffffffffffffffffffffffffffffffffffffff83818316178352505050506129a6565b50505050565b6128d78282604051602401612855929190614027565b6040516020818303038152906040527f9710a9d0000000000000000000000000000000000000000000000000000000007bffffffffffffffffffffffffffffffffffffffffffffffffffffffff19166020820180517bffffffffffffffffffffffffffffffffffffffffffffffffffffffff83818316178352505050506129a6565b5050565b600081600001549050919050565b612903828260405180602001604052806000815250612b6b565b5050565b6129a183838360405160240161291f93929190614057565b6040516020818303038152906040527f969cdd03000000000000000000000000000000000000000000000000000000007bffffffffffffffffffffffffffffffffffffffffffffffffffffffff19166020820180517bffffffffffffffffffffffffffffffffffffffffffffffffffffffff83818316178352505050506129a6565b505050565b60008151905060006a636f6e736f6c652e6c6f679050602083016000808483855afa5050505050565b505050565b60006129f58473ffffffffffffffffffffffffffffffffffffffff16612bc6565b15612b5e578373ffffffffffffffffffffffffffffffffffffffff1663150b7a02612a1e611e8d565b8786866040518563ffffffff1660e01b8152600401612a409493929190613e29565b602060405180830381600087803b158015612a5a57600080fd5b505af1925050508015612a8b57506040513d601f19601f82011682018060405250810190612a88919061315e565b60015b612b0e573d8060008114612abb576040519150601f19603f3d011682016040523d82523d6000602084013e612ac0565b606091505b50600081511415612b06576040517f08c379a0000000000000000000000000000000000000000000000000000000008152600401612afd906140b5565b60405180910390fd5b805181602001fd5b63150b7a0260e01b7bffffffffffffffffffffffffffffffffffffffffffffffffffffffff1916817bffffffffffffffffffffffffffffffffffffffffffffffffffffffff191614915050612b63565b600190505b949350505050565b612b758383612bd9565b612b8260008484846129d4565b612bc1576040517f08c379a0000000000000000000000000000000000000000000000000000000008152600401612bb8906140b5565b60405180910390fd5b505050565b600080823b905060008111915050919050565b600073ffffffffffffffffffffffffffffffffffffffff168273ffffffffffffffffffffffffffffffffffffffff161415612c49576040517f08c379a0000000000000000000000000000000000000000000000000000000008152600401612c40906141b5565b60405180910390fd5b612c5281611e21565b15612c92576040517f08c379a0000000000000000000000000000000000000000000000000000000008152600401612c89906140d5565b60405180910390fd5b612c9e600083836129cf565b6001600360008473ffffffffffffffffffffffffffffffffffffffff1673ffffffffffffffffffffffffffffffffffffffff1681526020019081526020016000206000828254612cee9190614468565b92505081905550816002600083815260200190815260200160002060006101000a81548173ffffffffffffffffffffffffffffffffffffffff021916908373ffffffffffffffffffffffffffffffffffffffff160217905550808273ffffffffffffffffffffffffffffffffffffffff16600073ffffffffffffffffffffffffffffffffffffffff167fddf252ad1be2c89b69c2b068fc378daa952ba7f163c4a11628f55a4df523b3ef60405160405180910390a45050565b6040518060c001604052806060815260200160608152602001600081526020016000815260200160008152602001600081525090565b6040518060e00160405280600081526020016060815260200160608152602001600081526020016000815260200160008152602001600081525090565b828054612e2690614633565b90600052602060002090601f016020900481019282612e485760008555612e8f565b82601f10612e6157805160ff1916838001178555612e8f565b82800160010185558215612e8f579182015b82811115612e8e578251825591602001919060010190612e73565b5b509050612e9c9190612ea0565b5090565b5b80821115612eb9576000816000905550600101612ea1565b5090565b6000612ed0612ecb846143ab565b61437a565b905082815260208101848484011115612ee857600080fd5b612ef38482856145f1565b509392505050565b600081359050612f0a816147ac565b92915050565b600081359050612f1f816147c3565b92915050565b600081359050612f34816147da565b92915050565b600081519050612f49816147da565b92915050565b600082601f830112612f6057600080fd5b8135612f70848260208601612ebd565b91505092915050565b600081359050612f88816147f1565b92915050565b600060208284031215612fa057600080fd5b6000612fae84828501612efb565b91505092915050565b60008060408385031215612fca57600080fd5b6000612fd885828601612efb565b9250506020612fe985828601612efb565b9150509250929050565b60008060006060848603121561300857600080fd5b600061301686828701612efb565b935050602061302786828701612efb565b925050604061303886828701612f79565b9150509250925092565b6000806000806080858703121561305857600080fd5b600061306687828801612efb565b945050602061307787828801612efb565b935050604061308887828801612f79565b925050606085013567ffffffffffffffff8111156130a557600080fd5b6130b187828801612f4f565b91505092959194509250565b600080604083850312156130d057600080fd5b60006130de85828601612efb565b92505060206130ef85828601612f10565b9150509250929050565b6000806040838503121561310c57600080fd5b600061311a85828601612efb565b925050602061312b85828601612f79565b9150509250929050565b60006020828403121561314757600080fd5b600061315584828501612f25565b91505092915050565b60006020828403121561317057600080fd5b600061317e84828501612f3a565b91505092915050565b60006020828403121561319957600080fd5b60006131a784828501612f79565b91505092915050565b60006131bc8383613be3565b905092915050565b6131cd8161457d565b82525050565b60006131de826143eb565b6131e88185614419565b9350836020820285016131fa856143db565b8060005b85811015613236578484038952815161321785826131b0565b94506132228361440c565b925060208a019950506001810190506131fe565b50829750879550505050505092915050565b6132518161458f565b82525050565b6000613262826143f6565b61326c818561442a565b935061327c818560208601614600565b6132858161479b565b840191505092915050565b600061329b82614401565b6132a5818561443b565b93506132b5818560208601614600565b6132be8161479b565b840191505092915050565b60006132d482614401565b6132de818561444c565b93506132ee818560208601614600565b6132f78161479b565b840191505092915050565b600061330d82614401565b613317818561445d565b9350613327818560208601614600565b80840191505092915050565b6000613340600b8361445d565b91507f202d2d204e465420233a200000000000000000000000000000000000000000006000830152600b82019050919050565b6000613380602f8361445d565b91507f7d2c207b202274726169745f74797065223a202241747461636b20537472656e60008301527f677468222c202276616c7565223a2000000000000000000000000000000000006020830152602f82019050919050565b60006133e6605e8361445d565b91507f222c20226465736372697074696f6e223a20225468697320697320616e204e4660008301527f542074686174206c6574732070656f706c6520706c617920696e20746865206760208301527f616d65204875652057617272696f727321222c2022696d616765223a202200006040830152605e82019050919050565b6000613472602c8361444c565b91507f4572726f723a20626f7373206d75737420686176652070757269747920746f2060008301527f61747461636b20626f73732e00000000000000000000000000000000000000006020830152604082019050919050565b60006134d860328361444c565b91507f4552433732313a207472616e7366657220746f206e6f6e20455243373231526560008301527f63656976657220696d706c656d656e74657200000000000000000000000000006020830152604082019050919050565b600061353e601c8361444c565b91507f4552433732313a20746f6b656e20616c7265616479206d696e746564000000006000830152602082019050919050565b600061357e600e8361445d565b91507f2c20226d61785f76616c7565223a0000000000000000000000000000000000006000830152600e82019050919050565b60006135be60248361444c565b91507f4552433732313a207472616e7366657220746f20746865207a65726f2061646460008301527f72657373000000000000000000000000000000000000000000000000000000006020830152604082019050919050565b600061362460198361444c565b91507f4552433732313a20617070726f766520746f2063616c6c6572000000000000006000830152602082019050919050565b6000613664603d8361445d565b91507f222c202261747472696275746573223a205b207b202274726169745f7479706560008301527f223a202250757269747920506f696e7473222c202276616c7565223a200000006020830152603d82019050919050565b60006136ca602c8361444c565b91507f4552433732313a206f70657261746f7220717565727920666f72206e6f6e657860008301527f697374656e7420746f6b656e00000000000000000000000000000000000000006020830152604082019050919050565b600061373060388361444c565b91507f4552433732313a20617070726f76652063616c6c6572206973206e6f74206f7760008301527f6e6572206e6f7220617070726f76656420666f7220616c6c00000000000000006020830152604082019050919050565b6000613796602a8361444c565b91507f4552433732313a2062616c616e636520717565727920666f7220746865207a6560008301527f726f2061646472657373000000000000000000000000000000000000000000006020830152604082019050919050565b60006137fc60298361444c565b91507f4552433732313a206f776e657220717565727920666f72206e6f6e657869737460008301527f656e7420746f6b656e00000000000000000000000000000000000000000000006020830152604082019050919050565b600061386260048361445d565b91507f7d205d7d000000000000000000000000000000000000000000000000000000006000830152600482019050919050565b60006138a260208361444c565b91507f4552433732313a206d696e7420746f20746865207a65726f20616464726573736000830152602082019050919050565b60006138e2602c8361444c565b91507f4552433732313a20617070726f76656420717565727920666f72206e6f6e657860008301527f697374656e7420746f6b656e00000000000000000000000000000000000000006020830152604082019050919050565b600061394860298361444c565b91507f4552433732313a207472616e73666572206f6620746f6b656e2074686174206960008301527f73206e6f74206f776e00000000000000000000000000000000000000000000006020830152604082019050919050565b60006139ae600a8361445d565b91507f7b226e616d65223a2022000000000000000000000000000000000000000000006000830152600a82019050919050565b60006139ee60218361444c565b91507f4552433732313a20617070726f76616c20746f2063757272656e74206f776e6560008301527f72000000000000000000000000000000000000000000000000000000000000006020830152604082019050919050565b6000613a54601d8361445d565b91507f646174613a6170706c69636174696f6e2f6a736f6e3b6261736536342c0000006000830152601d82019050919050565b6000613a9460318361444c565b91507f4552433732313a207472616e736665722063616c6c6572206973206e6f74206f60008301527f776e6572206e6f7220617070726f7665640000000000000000000000000000006020830152604082019050919050565b6000613afa60318361444c565b91507f4572726f723a20636861726163746572206d757374206861766520707572697460008301527f7920746f2061747461636b20626f73732e0000000000000000000000000000006020830152604082019050919050565b600060c0830160008301518482036000860152613b708282613290565b91505060208301518482036020860152613b8a8282613290565b9150506040830151613b9f6040860182613d29565b506060830151613bb26060860182613d29565b506080830151613bc56080860182613d29565b5060a0830151613bd860a0860182613d29565b508091505092915050565b600060e083016000830151613bfb6000860182613d29565b5060208301518482036020860152613c138282613290565b91505060408301518482036040860152613c2d8282613290565b9150506060830151613c426060860182613d29565b506080830151613c556080860182613d29565b5060a0830151613c6860a0860182613d29565b5060c0830151613c7b60c0860182613d29565b508091505092915050565b600060e083016000830151613c9e6000860182613d29565b5060208301518482036020860152613cb68282613290565b91505060408301518482036040860152613cd08282613290565b9150506060830151613ce56060860182613d29565b506080830151613cf86080860182613d29565b5060a0830151613d0b60a0860182613d29565b5060c0830151613d1e60c0860182613d29565b508091505092915050565b613d32816145e7565b82525050565b613d41816145e7565b82525050565b6000613d52826139a1565b9150613d5e8289613302565b9150613d6982613333565b9150613d758288613302565b9150613d80826133d9565b9150613d8c8287613302565b9150613d9782613657565b9150613da38286613302565b9150613dae82613571565b9150613dba8285613302565b9150613dc582613373565b9150613dd18284613302565b9150613ddc82613855565b9150819050979650505050505050565b6000613df782613a47565b9150613e038284613302565b915081905092915050565b6000602082019050613e2360008301846131c4565b92915050565b6000608082019050613e3e60008301876131c4565b613e4b60208301866131c4565b613e586040830185613d38565b8181036060830152613e6a8184613257565b905095945050505050565b6000606082019050613e8a60008301866131c4565b613e976020830185613d38565b613ea46040830184613d38565b949350505050565b60006020820190508181036000830152613ec681846131d3565b905092915050565b6000602082019050613ee36000830184613248565b92915050565b60006020820190508181036000830152613f0381846132c9565b905092915050565b60006080820190508181036000830152613f2581876132c9565b90508181036020830152613f3981866132c9565b9050613f486040830185613d38565b8181036060830152613f5a81846132c9565b905095945050505050565b60006080820190508181036000830152613f7f81876132c9565b90508181036020830152613f9381866132c9565b9050613fa26040830185613d38565b613faf6060830184613d38565b95945050505050565b600060c0820190508181036000830152613fd281896132c9565b90508181036020830152613fe681886132c9565b9050613ff56040830187613d38565b6140026060830186613d38565b61400f6080830185613d38565b61401c60a0830184613d38565b979650505050505050565b6000604082019050818103600083015261404181856132c9565b90506140506020830184613d38565b9392505050565b6000606082019050818103600083015261407181866132c9565b90506140806020830185613d38565b61408d6040830184613d38565b949350505050565b600060208201905081810360008301526140ae81613465565b9050919050565b600060208201905081810360008301526140ce816134cb565b9050919050565b600060208201905081810360008301526140ee81613531565b9050919050565b6000602082019050818103600083015261410e816135b1565b9050919050565b6000602082019050818103600083015261412e81613617565b9050919050565b6000602082019050818103600083015261414e816136bd565b9050919050565b6000602082019050818103600083015261416e81613723565b9050919050565b6000602082019050818103600083015261418e81613789565b9050919050565b600060208201905081810360008301526141ae816137ef565b9050919050565b600060208201905081810360008301526141ce81613895565b9050919050565b600060208201905081810360008301526141ee816138d5565b9050919050565b6000602082019050818103600083015261420e8161393b565b9050919050565b6000602082019050818103600083015261422e816139e1565b9050919050565b6000602082019050818103600083015261424e81613a87565b9050919050565b6000602082019050818103600083015261426e81613aed565b9050919050565b6000602082019050818103600083015261428f8184613b53565b905092915050565b600060208201905081810360008301526142b18184613c86565b905092915050565b60006020820190506142ce6000830184613d38565b92915050565b600060e0820190506142e9600083018a613d38565b81810360208301526142fb81896132c9565b9050818103604083015261430f81886132c9565b905061431e6060830187613d38565b61432b6080830186613d38565b61433860a0830185613d38565b61434560c0830184613d38565b98975050505050505050565b60006040820190506143666000830185613d38565b6143736020830184613d38565b9392505050565b6000604051905081810181811067ffffffffffffffff821117156143a1576143a061476c565b5b8060405250919050565b600067ffffffffffffffff8211156143c6576143c561476c565b5b601f19601f8301169050602081019050919050565b6000819050602082019050919050565b600081519050919050565b600081519050919050565b600081519050919050565b6000602082019050919050565b600082825260208201905092915050565b600082825260208201905092915050565b600082825260208201905092915050565b600082825260208201905092915050565b600081905092915050565b6000614473826145e7565b915061447e836145e7565b9250827fffffffffffffffffffffffffffffffffffffffffffffffffffffffffffffffff038211156144b3576144b26146df565b5b828201905092915050565b60006144c9826145e7565b91506144d4836145e7565b9250826144e4576144e361470e565b5b828204905092915050565b60006144fa826145e7565b9150614505836145e7565b9250817fffffffffffffffffffffffffffffffffffffffffffffffffffffffffffffffff048311821515161561453e5761453d6146df565b5b828202905092915050565b6000614554826145e7565b915061455f836145e7565b925082821015614572576145716146df565b5b828203905092915050565b6000614588826145c7565b9050919050565b60008115159050919050565b60007fffffffff0000000000000000000000000000000000000000000000000000000082169050919050565b600073ffffffffffffffffffffffffffffffffffffffff82169050919050565b6000819050919050565b82818337600083830152505050565b60005b8381101561461e578082015181840152602081019050614603565b8381111561462d576000848401525b50505050565b6000600282049050600182168061464b57607f821691505b6020821081141561465f5761465e61473d565b5b50919050565b6000614670826145e7565b91507fffffffffffffffffffffffffffffffffffffffffffffffffffffffffffffffff8214156146a3576146a26146df565b5b600182019050919050565b60006146b9826145e7565b91506146c4836145e7565b9250826146d4576146d361470e565b5b828206905092915050565b7f4e487b7100000000000000000000000000000000000000000000000000000000600052601160045260246000fd5b7f4e487b7100000000000000000000000000000000000000000000000000000000600052601260045260246000fd5b7f4e487b7100000000000000000000000000000000000000000000000000000000600052602260045260246000fd5b7f4e487b7100000000000000000000000000000000000000000000000000000000600052604160045260246000fd5b6000601f19601f8301169050919050565b6147b58161457d565b81146147c057600080fd5b50565b6147cc8161458f565b81146147d757600080fd5b50565b6147e38161459b565b81146147ee57600080fd5b50565b6147fa816145e7565b811461480557600080fd5b5056fe0a506c6179657220772f206368617261637465722025732061626f757420746f2061747461636b2e204861732025732050757269747920616e642025732041534142434445464748494a4b4c4d4e4f505152535455565758595a6162636465666768696a6b6c6d6e6f707172737475767778797a303132333435363738392b2f426f73732061747461636b656420706c617965722e204e657720706c61796572207075726974793a2025730a506c617965722061747461636b656420626f73732e204e657720626f7373207075726974793a2025734d696e746564204e465420772f20746f6b656e496420257320616e6420636861726163746572496e646578202573a2646970667358221220da936a41bd11ba2f41cf2db9248fa4e5e5ccb48ff0175ecbff6eb279eeeb124664736f6c63430008000033446f6e6520696e697469616c697a696e6720257320772f205075726974792025732c20696d67202573446f6e6520696e697469616c697a696e6720626f737320257320772f205075726974792025732c20696d67202573",
  "linkReferences": {},
  "deployedLinkReferences": {}
}